{"abi":[{"type":"constructor","inputs":[{"name":"_hasher","type":"address","internalType":"contract IHasher"},{"name":"_verifier_deposit","type":"address","internalType":"contract IVerifier_deposit"},{"name":"_verifier_withdraw","type":"address","internalType":"contract IVerifier_withdraw"},{"name":"_denomination","type":"uint256","internalType":"uint256"},{"name":"_merkleTreeHeight","type":"uint32","internalType":"uint32"}],"stateMutability":"nonpayable"},{"type":"function","name":"FIELD_SIZE","inputs":[],"outputs":[{"name":"","type":"uint256","internalType":"uint256"}],"stateMutability":"view"},{"type":"function","name":"commitments","inputs":[{"name":"","type":"bytes32","internalType":"bytes32"}],"outputs":[{"name":"","type":"bool","internalType":"bool"}],"stateMutability":"view"},{"type":"function","name":"commitmentsList","inputs":[{"name":"","type":"uint256","internalType":"uint256"}],"outputs":[{"name":"","type":"bytes32","internalType":"bytes32"}],"stateMutability":"view"},{"type":"function","name":"denomination","inputs":[],"outputs":[{"name":"","type":"uint256","internalType":"uint256"}],"stateMutability":"view"},{"type":"function","name":"deposit","inputs":[{"name":"_proof","type":"bytes","internalType":"bytes"},{"name":"kG_Hash","type":"bytes32","internalType":"bytes32"},{"name":"kS","type":"bytes32[2]","internalType":"bytes32[2]"},{"name":"S","type":"bytes32[2]","internalType":"bytes32[2]"}],"outputs":[],"stateMutability":"payable"},{"type":"function","name":"depositorOfkG_Hash","inputs":[{"name":"","type":"bytes32","internalType":"bytes32"}],"outputs":[{"name":"","type":"address","internalType":"address"}],"stateMutability":"view"},{"type":"function","name":"depositorOfkS","inputs":[{"name":"","type":"bytes32","internalType":"bytes32"},{"name":"","type":"bytes32","internalType":"bytes32"}],"outputs":[{"name":"","type":"address","internalType":"address"}],"stateMutability":"view"},{"type":"function","name":"filledSubtrees","inputs":[{"name":"","type":"uint256","internalType":"uint256"}],"outputs":[{"name":"","type":"bytes32","internalType":"bytes32"}],"stateMutability":"view"},{"type":"function","name":"getCommitments","inputs":[],"outputs":[{"name":"","type":"bytes32[]","internalType":"bytes32[]"}],"stateMutability":"view"},{"type":"function","name":"getDepositorOfkG_Hash","inputs":[{"name":"_hash","type":"bytes32","internalType":"bytes32"}],"outputs":[{"name":"","type":"address","internalType":"address"}],"stateMutability":"view"},{"type":"function","name":"getWithdrawerOfkH_Hash","inputs":[{"name":"_hash","type":"bytes32","internalType":"bytes32"}],"outputs":[{"name":"","type":"address","internalType":"address"}],"stateMutability":"view"},{"type":"function","name":"hashLeftRight","inputs":[{"name":"_left","type":"bytes32","internalType":"bytes32"},{"name":"_right","type":"bytes32","internalType":"bytes32"}],"outputs":[{"name":"","type":"bytes32","internalType":"bytes32"}],"stateMutability":"view"},{"type":"function","name":"hasher","inputs":[],"outputs":[{"name":"","type":"address","internalType":"contract IHasher"}],"stateMutability":"view"},{"type":"function","name":"insert","inputs":[{"name":"_leaf","type":"bytes32","internalType":"bytes32"}],"outputs":[{"name":"","type":"uint32","internalType":"uint32"}],"stateMutability":"nonpayable"},{"type":"function","name":"isKnownRoot","inputs":[{"name":"_root","type":"bytes32","internalType":"bytes32"}],"outputs":[{"name":"","type":"bool","internalType":"bool"}],"stateMutability":"view"},{"type":"function","name":"levels","inputs":[],"outputs":[{"name":"","type":"uint32","internalType":"uint32"}],"stateMutability":"view"},{"type":"function","name":"nextIndex","inputs":[],"outputs":[{"name":"","type":"uint32","internalType":"uint32"}],"stateMutability":"view"},{"type":"function","name":"nullilfierHashes","inputs":[{"name":"","type":"bytes32","internalType":"bytes32"}],"outputs":[{"name":"","type":"bool","internalType":"bool"}],"stateMutability":"view"},{"type":"function","name":"root","inputs":[],"outputs":[{"name":"","type":"bytes32","internalType":"bytes32"}],"stateMutability":"view"},{"type":"function","name":"supervisorPublickeyEnd","inputs":[{"name":"","type":"uint256","internalType":"uint256"}],"outputs":[{"name":"","type":"bytes32","internalType":"bytes32"}],"stateMutability":"view"},{"type":"function","name":"supervisorPublickeyStart","inputs":[{"name":"","type":"uint256","internalType":"uint256"}],"outputs":[{"name":"","type":"bytes32","internalType":"bytes32"}],"stateMutability":"view"},{"type":"function","name":"verifier_deposit","inputs":[],"outputs":[{"name":"","type":"address","internalType":"contract IVerifier_deposit"}],"stateMutability":"view"},{"type":"function","name":"verifier_withdraw","inputs":[],"outputs":[{"name":"","type":"address","internalType":"contract IVerifier_withdraw"}],"stateMutability":"view"},{"type":"function","name":"withdraw","inputs":[{"name":"_proof","type":"bytes","internalType":"bytes"},{"name":"_pubSignals","type":"uint256[41]","internalType":"uint256[41]"}],"outputs":[],"stateMutability":"nonpayable"},{"type":"function","name":"withdrawerOfkE","inputs":[{"name":"","type":"bytes32","internalType":"bytes32"},{"name":"","type":"bytes32","internalType":"bytes32"}],"outputs":[{"name":"","type":"address","internalType":"address"}],"stateMutability":"view"},{"type":"function","name":"withdrawerOfkH_Hash","inputs":[{"name":"","type":"bytes32","internalType":"bytes32"}],"outputs":[{"name":"","type":"address","internalType":"address"}],"stateMutability":"view"},{"type":"function","name":"zeros","inputs":[{"name":"i","type":"uint32","internalType":"uint32"}],"outputs":[{"name":"","type":"bytes32","internalType":"bytes32"}],"stateMutability":"pure"},{"type":"event","name":"Deposit","inputs":[{"name":"commitment","type":"bytes32","indexed":false,"internalType":"bytes32"},{"name":"leafIndex","type":"uint32","indexed":false,"internalType":"uint32"}],"anonymous":false},{"type":"event","name":"Withdraw","inputs":[{"name":"_recipient","type":"address","indexed":false,"internalType":"address"},{"name":"_nullilfierHash","type":"bytes32","indexed":false,"internalType":"bytes32"}],"anonymous":false},{"type":"error","name":"ReentrancyGuardReentrantCall","inputs":[]}],"bytecode":{"object":"0x6101206040527f1a6ef912793139a54cbbe77ceff5acce3140b659744d1c516aad7682ba97919960e09081527f198f3a926b833efd0056926724c072fdcfb1ebb84e77e60daa14a1484070dd07610100526200006090600890600262000899565b50604080518082019091527f1f76b93712e7dcb087468c1469e1f8425d17d265d2f870c9c22d9cb1399e598681527f2f7843eb4df4334d2f14a3a844c4430bee0ec46cfec755fcf02707f3a424f5fa6020820152620000c490600a90600262000899565b50348015620000d257600080fd5b5060405162002a7338038062002a73833981016040819052620000f5916200090c565b6000805463ffffffff191663ffffffff83161781556001600160a01b038616608052819086905b60005463ffffffff908116908216101562000167576200013c816200018d565b63ffffffff8216600090815260016020526040902055806200015e8162000988565b9150506200011c565b5050600160035550506001600160a01b0392831660a052911660c05260045550620009ba565b60008163ffffffff16600003620001c557507f2fe54c60d3acabf3343a35b6eba15db4821b340f76e741e2249685ed4899af6c919050565b8163ffffffff16600103620001fb57507f256a6135777eee2fd26f54b8b7037a25439d5235caee224154186d2b8a52e31d919050565b8163ffffffff166002036200023157507f1151949895e82ab19924de92c40a3d6f7bcb60d92b00504b8199613683f0c200919050565b8163ffffffff166003036200026757507f20121ee811489ff8d61f09fb89e313f14959a0f28bb428a20dba6b0b068b3bdb919050565b8163ffffffff166004036200029d57507f0a89ca6ffa14cc462cfedb842c30ed221a50a3d6bf022a6a57dc82ab24c157c9919050565b8163ffffffff16600503620002d357507f24ca05c2b5cd42e890d6be94c68d0689f4f21c9cec9c0f13fe41d566dfb54959919050565b8163ffffffff166006036200030957507f1ccb97c932565a92c60156bdba2d08f3bf1377464e025cee765679e604a7315c919050565b8163ffffffff166007036200033f57507f19156fbd7d1a8bf5cba8909367de1b624534ebab4f0f79e003bccdd1b182bdb4919050565b8163ffffffff166008036200037557507f261af8c1f0912e465744641409f622d466c3920ac6e5ff37e36604cb11dfff80919050565b8163ffffffff16600903620003aa57507e58459724ff6ca5a1652fcbc3e82b93895cf08e975b19beab3f54c217d1c007919050565b8163ffffffff16600a03620003e057507f1f04ef20dee48d39984d8eabe768a70eafa6310ad20849d4573c3c40c2ad1e30919050565b8163ffffffff16600b036200041657507f1bea3dec5dab51567ce7e200a30f7ba6d4276aeaa53e2686f962a46c66d511e5919050565b8163ffffffff16600c036200044c57507f0ee0f941e2da4b9e31c3ca97a40d8fa9ce68d97c084177071b3cb46cd3372f0f919050565b8163ffffffff16600d036200048257507f1ca9503e8935884501bbaf20be14eb4c46b89772c97b96e3b2ebf3a36a948bbd919050565b8163ffffffff16600e03620004b857507f133a80e30697cd55d8f7d4b0965b7be24057ba5dc3da898ee2187232446cb108919050565b8163ffffffff16600f03620004ee57507f13e6d8fc88839ed76e182c2a779af5b2c0da9dd18c90427a644f7e148a6253b6919050565b8163ffffffff166010036200052457507f1eb16b057a477f4bc8f572ea6bee39561098f78f15bfb3699dcbb7bd8db61854919050565b8163ffffffff166011036200055a57507f0da2cb16a1ceaabf1c16b838f7a9e3f2a3a3088d9e0a6debaa748114620696ea919050565b8163ffffffff166012036200059057507f24a3b3d822420b14b5d8cb6c28a574f01e98ea9e940551d2ebd75cee12649f9d919050565b8163ffffffff16601303620005c657507f198622acbd783d1b0d9064105b1fc8e4d8889de95c4c519b3f635809fe6afc05919050565b8163ffffffff16601403620005fc57507f29d7ed391256ccc3ea596c86e933b89ff339d25ea8ddced975ae2fe30b5296d4919050565b8163ffffffff166015036200063257507f19be59f2f0413ce78c0c3703a3a5451b1d7f39629fa33abd11548a76065b2967919050565b8163ffffffff166016036200066857507f1ff3f61797e538b70e619310d33f2a063e7eb59104e112e95738da1254dc3453919050565b8163ffffffff166017036200069e57507f10c16ae9959cf8358980d9dd9616e48228737310a10e2b6b731c1a548f036c48919050565b8163ffffffff16601803620006d457507f0ba433a63174a90ac20992e75e3095496812b652685b5e1a2eae0b1bf4e8fcd1919050565b8163ffffffff166019036200070a57507f019ddb9df2bc98d987d0dfeca9d2b643deafab8f7036562e627c3667266a044c919050565b8163ffffffff16601a036200074057507f2d3c88b23175c5a5565db928414c66d1912b11acf974b2e644caaac04739ce99919050565b8163ffffffff16601b036200077657507f2eab55f6ae4e66e32c5189eed5c470840863445760f5ed7e7b69b2a62600f354919050565b8163ffffffff16601c03620007ab57507e2df37a2642621802383cf952bf4dd1f32e05433beeb1fd41031fb7eace979d919050565b8163ffffffff16601d03620007e157507f104aeb41435db66c3e62feccc1d6f5d98d0a0ed75d1374db457cf462e3a1f427919050565b8163ffffffff16601e036200081757507f1f3c6fd858e9a7d4b0d1f38e256a09d81d5a5e3c963987e2d4b814cfab7c6ebb919050565b8163ffffffff16601f036200084d57507f2c7a07d20dff79d01fecedc1134284a8d08436606c93693b67e333f671bf69cc919050565b60405162461bcd60e51b815260206004820152601360248201527f496e646578206f7574206f6620626f756e647300000000000000000000000000604482015260640160405180910390fd5b8260028101928215620008ca579160200282015b82811115620008ca578251825591602001919060010190620008ad565b50620008d8929150620008dc565b5090565b5b80821115620008d85760008155600101620008dd565b6001600160a01b03811681146200090957600080fd5b50565b600080600080600060a086880312156200092557600080fd5b85516200093281620008f3565b60208701519095506200094581620008f3565b60408701519094506200095881620008f3565b60608701516080880151919450925063ffffffff811681146200097a57600080fd5b809150509295509295909350565b600063ffffffff808316818103620009b057634e487b7160e01b600052601160045260246000fd5b6001019392505050565b60805160a05160c05161206d62000a066000396000818161053d0152610d8801526000818161032101526106ab0152600081816105870152818161113601526111e6015261206d6000f3fe60806040526004361061019c5760003560e01c8063839df945116100ec578063ea3a2b5a1161008a578063f178e47c11610064578063f178e47c146105a9578063f1ea66d4146105d6578063f5db8b0b146105f8578063fc7e9c6f1461061857600080fd5b8063ea3a2b5a1461052b578063ebf0c7171461055f578063ed33639f1461057557600080fd5b80639485ede8116100c65780639485ede81461047a578063a63b235f1461049a578063a7f53131146104db578063ced1e003146104fb57600080fd5b8063839df945146103fe57806388a78bf71461042e5780638bca6d161461046457600080fd5b80633babfc82116101595780634ecf518b116101335780634ecf518b146103435780635056034d146103605780636230ee76146103965780636d9833e3146103cc57600080fd5b80633babfc82146102ac578063414a37ba146102ed57806345a16ed11461030f57600080fd5b806303d3f739146101a157806311a9c5d4146101f457806325250a85146102095780632d287e431461023757806338767d111461026c57806338bf282e1461028c575b600080fd5b3480156101ad57600080fd5b506101d76101bc366004611a49565b600e602052600090815260409020546001600160a01b031681565b6040516001600160a01b0390911681526020015b60405180910390f35b610207610202366004611abc565b61063d565b005b34801561021557600080fd5b50610229610224366004611a49565b610a56565b6040519081526020016101eb565b34801561024357600080fd5b50610257610252366004611a49565b610a6d565b60405163ffffffff90911681526020016101eb565b34801561027857600080fd5b50610207610287366004611b2c565b610bc5565b34801561029857600080fd5b506102296102a7366004611b89565b611048565b3480156102b857600080fd5b506101d76102c7366004611b89565b600c6020908152600092835260408084209091529082529020546001600160a01b031681565b3480156102f957600080fd5b5061022960008051602061201883398151915281565b34801561031b57600080fd5b506101d77f000000000000000000000000000000000000000000000000000000000000000081565b34801561034f57600080fd5b506000546102579063ffffffff1681565b34801561036c57600080fd5b506101d761037b366004611a49565b6000908152600e60205260409020546001600160a01b031690565b3480156103a257600080fd5b506101d76103b1366004611a49565b600f602052600090815260409020546001600160a01b031681565b3480156103d857600080fd5b506103ee6103e7366004611a49565b6002541490565b60405190151581526020016101eb565b34801561040a57600080fd5b506103ee610419366004611a49565b60056020526000908152604090205460ff1681565b34801561043a57600080fd5b506101d7610449366004611a49565b6000908152600f60205260409020546001600160a01b031690565b34801561047057600080fd5b5061022960045481565b34801561048657600080fd5b50610229610495366004611a49565b611264565b3480156104a657600080fd5b506101d76104b5366004611b89565b600d6020908152600092835260408084209091529082529020546001600160a01b031681565b3480156104e757600080fd5b506102296104f6366004611bab565b611285565b34801561050757600080fd5b506103ee610516366004611a49565b60066020526000908152604090205460ff1681565b34801561053757600080fd5b506101d77f000000000000000000000000000000000000000000000000000000000000000081565b34801561056b57600080fd5b5061022960025481565b34801561058157600080fd5b506101d77f000000000000000000000000000000000000000000000000000000000000000081565b3480156105b557600080fd5b506102296105c4366004611a49565b60016020526000908152604090205481565b3480156105e257600080fd5b506105eb611963565b6040516101eb9190611bd8565b34801561060457600080fd5b50610229610613366004611a49565b611a0f565b34801561062457600080fd5b5060005461025790640100000000900463ffffffff1681565b610645611a1f565b600854813514801561065c57506009546020820135145b6106995760405162461bcd60e51b815260206004820152600960248201526814c81a5b9d985b1a5960ba1b60448201526064015b60405180910390fd5b60006106a785870187611c48565b90507f00000000000000000000000000000000000000000000000000000000000000006001600160a01b03166334baeab96040518060400160405280846000600881106106f6576106f6611c1c565b602002015181526020018460016008811061071357610713611c1c565b602002015190526040805160808101825285820151918101918252908190606082018760036020020151815250815260200160405180604001604052808760046008811061076357610763611c1c565b602002015181526020018760056008811061078057610780611c1c565b602002015190529052604080518082019091528086600660200201518152602001866007600881106107b4576107b4611c1c565b60200201518152506040518060a001604052808a60001c8152602001896000600281106107e3576107e3611c1c565b6020908102919091013582528a810135828201528935604080840191909152908a01356060909201919091525160e086901b6001600160e01b03191681526108319493929190600401611d2c565b6020604051808303816000875af1158015610850573d6000803e3d6000fd5b505050506040513d601f19601f820116820180604052508101906108749190611d89565b6108b75760405162461bcd60e51b815260206004820152601460248201527324b73b30b634b2103232b837b9ba10383937b7b360611b6044820152606401610690565b60008481526005602052604090205460ff16156109165760405162461bcd60e51b815260206004820152601a60248201527f546865206b475f4861736820686173206265656e2061646465640000000000006044820152606401610690565b600454341461095c5760405162461bcd60e51b815260206004820152601260248201527122b93937b9103232b737b6b4b730ba34b7b760711b6044820152606401610690565b6000848152600e602090815260408083208054336001600160a01b0319918216811790925587358552600c845282852088850135865290935290832080549092161790556109a985610a6d565b600086815260056020526040808220805460ff191660019081179091556007805491820181559092527fa66cc928b5edb82af9bd49922954155ab7b0942694bea4ce44661d9a8736c688909101879055519091507f84fc9eb8cd0a782a1d1734fbeed616bd0ef775f8b9bd437636b62d634fe4baf390610a3b908790849091825263ffffffff16602082015260400190565b60405180910390a15050610a4f6001600355565b5050505050565b60088160028110610a6657600080fd5b0154905081565b6000805463ffffffff6401000000008204811691610a8d91166002611ed2565b63ffffffff168163ffffffff1603610add5760405162461bcd60e51b815260206004820152601360248201527213595c9adb19481d1c9959481a5cc8199d5b1b606a1b6044820152606401610690565b8083600080805b60005463ffffffff9081169082161015610b8257610b03600286611f05565b63ffffffff16600003610b3b57839250610b1c81611285565b63ffffffff821660009081526001602052604090208590559150610b57565b63ffffffff811660009081526001602052604090205492508391505b610b618383611048565b9350610b6e600286611f28565b945080610b7a81611f4b565b915050610ae4565b506002839055610b93856001611f6e565b6000805463ffffffff929092166401000000000267ffffffff0000000019909216919091179055509295945050505050565b610bcd611a1f565b60408051808201825260208381013582528383013581830152825181815261042081019093528335926000918181016104008036833701905050905060005b6020811015610c685784610c21826003611f8b565b60298110610c3157610c31611c1c565b602002013560001b828281518110610c4b57610c4b611c1c565b602090810291909101015280610c6081611f9e565b915050610c0c565b506000604051806040016040528086602360298110610c8957610c89611c1c565b602090810291909101358252610480880135910152600a5481519192506104a0870135916104c0880135916104e0890135916105008a013591148015610cd45750600b546020860151145b610d0c5760405162461bcd60e51b815260206004820152600960248201526811481a5b9d985b1a5960ba1b6044820152606401610690565b60008881526006602052604090205460ff1615610d765760405162461bcd60e51b815260206004820152602260248201527f546865206b485f486173682068617320616c7265616479206265656e207370656044820152611b9d60f21b6064820152608401610690565b6000610d848b8d018d611c48565b90507f00000000000000000000000000000000000000000000000000000000000000006001600160a01b031663a44f8897604051806040016040528084600060088110610dd357610dd3611c1c565b6020020151815260200184600160088110610df057610df0611c1c565b6020020151905260408051608081018252858201519181019182529081906060820187600360200201518152508152602001604051806040016040528087600460088110610e4057610e40611c1c565b6020020151815260200187600560088110610e5d57610e5d611c1c565b60200201519052905260408051808201909152808660066020020151815260200186600760088110610e9157610e91611c1c565b60200201518152508e6040518563ffffffff1660e01b8152600401610eb99493929190611fb7565b6020604051808303816000875af1158015610ed8573d6000803e3d6000fd5b505050506040513d601f19601f82011682018060405250810190610efc9190611d89565b610f415760405162461bcd60e51b815260206004820152601660248201527524b73b30b634b2103bb4ba34323930bb90383937b7b360511b6044820152606401610690565b6000898152600660209081526040808320805460ff191660011790558a518352600d82528083208b8301518452825280832080546001600160a01b03199081166001600160a01b038b169081179092558d8552600f9093528184208054909316811790925560045490518381818185875af1925050503d8060008114610fe3576040519150601f19603f3d011682016040523d82523d6000602084013e610fe8565b606091505b5050604080516001600160a01b0389168152602081018d90529192507fb18c630f7b4f080f2ce1a87d68860e67aef56b0978e448ed92312da4eebeb160910160405180910390a1505050505050505050506110436001600355565b505050565b600060008051602061201883398151915283106110a75760405162461bcd60e51b815260206004820181905260248201527f5f6c6566742073686f756c6420626520696e7369646520746865206669656c646044820152606401610690565b600080516020612018833981519152821061110e5760405162461bcd60e51b815260206004820152602160248201527f5f72696768742073686f756c6420626520696e7369646520746865206669656c6044820152601960fa1b6064820152608401610690565b604051633f1a118760e01b8152600481018490526000602482018190526044820181905284917f00000000000000000000000000000000000000000000000000000000000000006001600160a01b031690633f1a1187906064016040805180830381865afa158015611184573d6000803e3d6000fd5b505050506040513d601f19601f820116820180604052508101906111a89190611ff3565b9092509050600080516020612018833981519152848308604051633f1a118760e01b81526004810182905260248101839052600060448201529092507f00000000000000000000000000000000000000000000000000000000000000006001600160a01b031690633f1a1187906064016040805180830381865afa158015611234573d6000803e3d6000fd5b505050506040513d601f19601f820116820180604052508101906112589190611ff3565b50925050505b92915050565b6007818154811061127457600080fd5b600091825260209091200154905081565b60008163ffffffff166000036112bc57507f2fe54c60d3acabf3343a35b6eba15db4821b340f76e741e2249685ed4899af6c919050565b8163ffffffff166001036112f157507f256a6135777eee2fd26f54b8b7037a25439d5235caee224154186d2b8a52e31d919050565b8163ffffffff1660020361132657507f1151949895e82ab19924de92c40a3d6f7bcb60d92b00504b8199613683f0c200919050565b8163ffffffff1660030361135b57507f20121ee811489ff8d61f09fb89e313f14959a0f28bb428a20dba6b0b068b3bdb919050565b8163ffffffff1660040361139057507f0a89ca6ffa14cc462cfedb842c30ed221a50a3d6bf022a6a57dc82ab24c157c9919050565b8163ffffffff166005036113c557507f24ca05c2b5cd42e890d6be94c68d0689f4f21c9cec9c0f13fe41d566dfb54959919050565b8163ffffffff166006036113fa57507f1ccb97c932565a92c60156bdba2d08f3bf1377464e025cee765679e604a7315c919050565b8163ffffffff1660070361142f57507f19156fbd7d1a8bf5cba8909367de1b624534ebab4f0f79e003bccdd1b182bdb4919050565b8163ffffffff1660080361146457507f261af8c1f0912e465744641409f622d466c3920ac6e5ff37e36604cb11dfff80919050565b8163ffffffff1660090361149857507e58459724ff6ca5a1652fcbc3e82b93895cf08e975b19beab3f54c217d1c007919050565b8163ffffffff16600a036114cd57507f1f04ef20dee48d39984d8eabe768a70eafa6310ad20849d4573c3c40c2ad1e30919050565b8163ffffffff16600b0361150257507f1bea3dec5dab51567ce7e200a30f7ba6d4276aeaa53e2686f962a46c66d511e5919050565b8163ffffffff16600c0361153757507f0ee0f941e2da4b9e31c3ca97a40d8fa9ce68d97c084177071b3cb46cd3372f0f919050565b8163ffffffff16600d0361156c57507f1ca9503e8935884501bbaf20be14eb4c46b89772c97b96e3b2ebf3a36a948bbd919050565b8163ffffffff16600e036115a157507f133a80e30697cd55d8f7d4b0965b7be24057ba5dc3da898ee2187232446cb108919050565b8163ffffffff16600f036115d657507f13e6d8fc88839ed76e182c2a779af5b2c0da9dd18c90427a644f7e148a6253b6919050565b8163ffffffff1660100361160b57507f1eb16b057a477f4bc8f572ea6bee39561098f78f15bfb3699dcbb7bd8db61854919050565b8163ffffffff1660110361164057507f0da2cb16a1ceaabf1c16b838f7a9e3f2a3a3088d9e0a6debaa748114620696ea919050565b8163ffffffff1660120361167557507f24a3b3d822420b14b5d8cb6c28a574f01e98ea9e940551d2ebd75cee12649f9d919050565b8163ffffffff166013036116aa57507f198622acbd783d1b0d9064105b1fc8e4d8889de95c4c519b3f635809fe6afc05919050565b8163ffffffff166014036116df57507f29d7ed391256ccc3ea596c86e933b89ff339d25ea8ddced975ae2fe30b5296d4919050565b8163ffffffff1660150361171457507f19be59f2f0413ce78c0c3703a3a5451b1d7f39629fa33abd11548a76065b2967919050565b8163ffffffff1660160361174957507f1ff3f61797e538b70e619310d33f2a063e7eb59104e112e95738da1254dc3453919050565b8163ffffffff1660170361177e57507f10c16ae9959cf8358980d9dd9616e48228737310a10e2b6b731c1a548f036c48919050565b8163ffffffff166018036117b357507f0ba433a63174a90ac20992e75e3095496812b652685b5e1a2eae0b1bf4e8fcd1919050565b8163ffffffff166019036117e857507f019ddb9df2bc98d987d0dfeca9d2b643deafab8f7036562e627c3667266a044c919050565b8163ffffffff16601a0361181d57507f2d3c88b23175c5a5565db928414c66d1912b11acf974b2e644caaac04739ce99919050565b8163ffffffff16601b0361185257507f2eab55f6ae4e66e32c5189eed5c470840863445760f5ed7e7b69b2a62600f354919050565b8163ffffffff16601c0361188657507e2df37a2642621802383cf952bf4dd1f32e05433beeb1fd41031fb7eace979d919050565b8163ffffffff16601d036118bb57507f104aeb41435db66c3e62feccc1d6f5d98d0a0ed75d1374db457cf462e3a1f427919050565b8163ffffffff16601e036118f057507f1f3c6fd858e9a7d4b0d1f38e256a09d81d5a5e3c963987e2d4b814cfab7c6ebb919050565b8163ffffffff16601f0361192557507f2c7a07d20dff79d01fecedc1134284a8d08436606c93693b67e333f671bf69cc919050565b60405162461bcd60e51b8152602060048201526013602482015272496e646578206f7574206f6620626f756e647360681b6044820152606401610690565b60075460609060008167ffffffffffffffff81111561198457611984611c32565b6040519080825280602002602001820160405280156119ad578160200160208202803683370190505b50905060005b82811015611a0857600781815481106119ce576119ce611c1c565b90600052602060002001548282815181106119eb576119eb611c1c565b602090810291909101015280611a0081611f9e565b9150506119b3565b5092915050565b600a8160028110610a6657600080fd5b600260035403611a4257604051633ee5aeb560e01b815260040160405180910390fd5b6002600355565b600060208284031215611a5b57600080fd5b5035919050565b60008083601f840112611a7457600080fd5b50813567ffffffffffffffff811115611a8c57600080fd5b602083019150836020828501011115611aa457600080fd5b9250929050565b806040810183101561125e57600080fd5b600080600080600060c08688031215611ad457600080fd5b853567ffffffffffffffff811115611aeb57600080fd5b611af788828901611a62565b90965094505060208601359250611b118760408801611aab565b9150611b208760808801611aab565b90509295509295909350565b6000806000610540808587031215611b4357600080fd5b843567ffffffffffffffff811115611b5a57600080fd5b611b6687828801611a62565b909550935050848101861015611b7b57600080fd5b506020840190509250925092565b60008060408385031215611b9c57600080fd5b50508035926020909101359150565b600060208284031215611bbd57600080fd5b813563ffffffff81168114611bd157600080fd5b9392505050565b6020808252825182820181905260009190848201906040850190845b81811015611c1057835183529284019291840191600101611bf4565b50909695505050505050565b634e487b7160e01b600052603260045260246000fd5b634e487b7160e01b600052604160045260246000fd5b6000610100808385031215611c5c57600080fd5b83601f840112611c6b57600080fd5b60405181810181811067ffffffffffffffff82111715611c9b57634e487b7160e01b600052604160045260246000fd5b604052908301908085831115611cb057600080fd5b845b83811015611cca578035825260209182019101611cb2565b509095945050505050565b8060005b6002811015611cf8578151845260209384019390910190600101611cd9565b50505050565b8060005b6002811015611cf857611d16848351611cd5565b6040939093019260209190910190600101611d02565b6101a08101611d3b8287611cd5565b611d486040830186611cfe565b611d5560c0830185611cd5565b61010082018360005b6005811015611d7d578151835260209283019290910190600101611d5e565b50505095945050505050565b600060208284031215611d9b57600080fd5b81518015158114611bd157600080fd5b634e487b7160e01b600052601160045260246000fd5b600181815b80851115611dfe578163ffffffff04821115611de457611de4611dab565b80851615611df157918102915b93841c9390800290611dc6565b509250929050565b600082611e155750600161125e565b81611e225750600061125e565b8160018114611e385760028114611e4257611e73565b600191505061125e565b60ff841115611e5357611e53611dab565b6001841b915063ffffffff821115611e6d57611e6d611dab565b5061125e565b5060208310610133831016604e8410600b8410161715611eaa575081810a63ffffffff811115611ea557611ea5611dab565b61125e565b611eb48383611dc1565b8063ffffffff04821115611eca57611eca611dab565b029392505050565b600063ffffffff611ee7818516828516611e06565b949350505050565b634e487b7160e01b600052601260045260246000fd5b600063ffffffff80841680611f1c57611f1c611eef565b92169190910692915050565b600063ffffffff80841680611f3f57611f3f611eef565b92169190910492915050565b600063ffffffff808316818103611f6457611f64611dab565b6001019392505050565b63ffffffff818116838216019080821115611a0857611a08611dab565b8082018082111561125e5761125e611dab565b600060018201611fb057611fb0611dab565b5060010190565b6106208101611fc68287611cd5565b611fd36040830186611cfe565b611fe060c0830185611cd5565b6105208361010084013795945050505050565b6000806040838503121561200657600080fd5b50508051602090910151909290915056fe30644e72e131a029b85045b68181585d2833e84879b9709143e1f593f0000001a2646970667358221220ba9d280b72d086bca68cf80abe88ecc2ffb9ba69e5a763c86aba70cef43a64a964736f6c63430008140033","linkReferences":{}},"methodIdentifiers":{"FIELD_SIZE()":"414a37ba","commitments(bytes32)":"839df945","commitmentsList(uint256)":"9485ede8","denomination()":"8bca6d16","deposit(bytes,bytes32,bytes32[2],bytes32[2])":"11a9c5d4","depositorOfkG_Hash(bytes32)":"03d3f739","depositorOfkS(bytes32,bytes32)":"3babfc82","filledSubtrees(uint256)":"f178e47c","getCommitments()":"f1ea66d4","getDepositorOfkG_Hash(bytes32)":"5056034d","getWithdrawerOfkH_Hash(bytes32)":"88a78bf7","hashLeftRight(bytes32,bytes32)":"38bf282e","hasher()":"ed33639f","insert(bytes32)":"2d287e43","isKnownRoot(bytes32)":"6d9833e3","levels()":"4ecf518b","nextIndex()":"fc7e9c6f","nullilfierHashes(bytes32)":"ced1e003","root()":"ebf0c717","supervisorPublickeyEnd(uint256)":"f5db8b0b","supervisorPublickeyStart(uint256)":"25250a85","verifier_deposit()":"45a16ed1","verifier_withdraw()":"ea3a2b5a","withdraw(bytes,uint256[41])":"38767d11","withdrawerOfkE(bytes32,bytes32)":"a63b235f","withdrawerOfkH_Hash(bytes32)":"6230ee76","zeros(uint32)":"a7f53131"},"id":24}